:100000000C9434000C9451000C9451000C94510049
:100010000C9451000C9451000C9451000C9451001C
:100020000C9451000C9451000C9451000C9451000C
:100030000C9451000C9451000C9451000C945100FC
:100040000C9451000C9451000C94A4000C94510099
:100050000C9451000C9451000C9451000C945100DC
:100060000C9451000C94510011241FBECFEFD8E026
:10007000DEBFCDBF11E0A0E0B1E0E4EFF3E002C0ED
:1000800005900D92A631B107D9F711E0A6E1B1E0D4
:1000900001C01D92A935B107E1F70E945A000C94E6
:1000A000F8010C940000982F81568A3108F4905280
:1000B000892F0895EF92FF920F931F93DF93CF93B1
:1000C000CDB7DEB7C054D0400FB6F894DEBF0FBE38
:1000D000CDBF60E875E280E090E00E94D00080E94A
:1000E000E82E81E0F82E8E010F5F1F4F80E091E037
:1000F0000E94FB000E94F0008823E1F388EE93E069
:10010000F7013197F1F70197D9F7C8010E94330140
:10011000F80120E030E0482F552747FD509509C0F1
:100120009081892F81568A3108F4905291932F5FE4
:100130003F4F24173507A4F3C8010E94FB0083E159
:1001400091E00E94FB00D2CF1F920F920FB60F9248
:1001500011248F939F93EF93FF93809118019091B7
:10016000C600E82FF0E0E75EFE4F90838F5F80933C
:100170001801809118018F738093180180911601E6
:10018000803428F4809116018F5F80931601FF91CF
:10019000EF919F918F910F900FBE0F901F90189528
:1001A0009B01AC0180E28093C00088E98093C1008C
:1001B00086E08093C20084E0220F331F441F551F46
:1001C0008A95D1F760E074E284EF90E00E94D60156
:1001D000215030403093C5002093C4007894089596
:1001E000809116010895982F8091C00085FFFCCF63
:1001F0009093C6000895FC0107C08091C00085FF60
:10020000FCCF9093C600319690819923B1F7089561
:100210009C01F9012F5F3F4F9491992339F0809110
:10022000C00085FFFCCF9093C600F3CF0895809166
:100230001601882311F4EFEF14C080911701E82F05
:10024000F0E0E75EFE4FE0818F5F809317018091C1
:1002500017018F738093170180911601815080934D
:1002600016018E2F0895EF92FF921F93CF93DF9385
:100270007C0110E006C00E941701CE0DDF1D8883AF
:100280001F5F80911601C12FD0E08823A1F7CE0D0A
:10029000DF1D1882812FDF91CF911F91FF90EF908A
:1002A000089580911601882311F48FEF0895E0914D
:1002B0001701F0E0E75EFE4F808108951F93CF9312
:1002C000DF9302C00E94170180911601882341F03C
:1002D000E0911701F0E0E75EFE4F8081803364F427
:1002E00080911601882371F3E0911701F0E0E75E39
:1002F000FE4F80818D3231F780911601882341F0C5
:10030000E0911701F0E0E75EFE4F80818A33D4F67A
:1003100080911601882361F0E0911701F0E0E75E1B
:10032000FE4F80818D3221F40E9417011FEF01C022
:1003300011E0C0E0D0E012C00E9417019E0143E02E
:10034000220F331F4A95E1F7CC0FDD1FC20FD31FD9
:10035000E097992787FD9095C80FD91F80911601C6
:100360008823A1F0E0911701F0E0E75EFE4F808165
:10037000803364F0809116018823F1F2E091170137
:10038000F0E0E75EFE4F80818A33B4F2812F992737
:1003900087FD9095C89F9001C99F300DD89F300D63
:1003A0001124C901DF91CF911F910895A1E21A2E66
:1003B000AA1BBB1BFD010DC0AA1FBB1FEE1FFF1F09
:1003C000A217B307E407F50720F0A21BB30BE40B59
:1003D000F50B661F771F881F991F1A9469F76095A0
:1003E0007095809590959B01AC01BD01CF0108955A
:0403F000F894FFCFAF
:1003F4004E61706973697465206E6573746F3A2019
:060404000D0A000D0A00C4
:00000001FF
